{"contracts/Factory/InstanceRegistry.sol":{"InstanceRegistry":{"abi":[{"anonymous":false,"inputs":[{"indexed":false,"internalType":"address","name":"instance","type":"address"}],"name":"InstanceAdded","type":"event"},{"anonymous":false,"inputs":[{"indexed":false,"internalType":"address","name":"instance","type":"address"}],"name":"InstanceRemoved","type":"event"},{"inputs":[{"internalType":"uint256","name":"index","type":"uint256"}],"name":"instanceAt","outputs":[{"internalType":"address","name":"instance","type":"address"}],"stateMutability":"view","type":"function"},{"inputs":[],"name":"instanceCount","outputs":[{"internalType":"uint256","name":"count","type":"uint256"}],"stateMutability":"view","type":"function"},{"inputs":[{"internalType":"address","name":"instance","type":"address"}],"name":"isInstance","outputs":[{"internalType":"bool","name":"validity","type":"bool"}],"stateMutability":"view","type":"function"}],"evm":{"bytecode":{"linkReferences":{},"object":"608060405234801561001057600080fd5b506102cf806100206000396000f3fe608060405234801561001057600080fd5b50600436106100415760003560e01c806311d8293e146100465780636b44e6be1461009e578063ec56c716146100f8575b600080fd5b6100726004803603602081101561005c57600080fd5b8101908080359060200190929190505050610116565b604051808273ffffffffffffffffffffffffffffffffffffffff16815260200191505060405180910390f35b6100e0600480360360208110156100b457600080fd5b81019080803573ffffffffffffffffffffffffffffffffffffffff169060200190929190505050610133565b60405180821515815260200191505060405180910390f35b610100610150565b6040518082815260200191505060405180910390f35b600061012c82600061016190919063ffffffff16565b9050919050565b600061014982600061017b90919063ffffffff16565b9050919050565b600061015c60006101ab565b905090565b600061017083600001836101c0565b60001c905092915050565b60006101a3836000018373ffffffffffffffffffffffffffffffffffffffff1660001b610243565b905092915050565b60006101b982600001610266565b9050919050565b600081836000018054905011610221576040517f08c379a00000000000000000000000000000000000000000000000000000000081526004018080602001828103825260228152602001806102786022913960400191505060405180910390fd5b82600001828154811061023057fe5b9060005260206000200154905092915050565b600080836001016000848152602001908152602001600020541415905092915050565b60008160000180549050905091905056fe456e756d657261626c655365743a20696e646578206f7574206f6620626f756e6473a2646970667358221220341cb5662e4204f4be2b93a36cba03b76d6a06bfa4deecc926ca423ececc5c7064736f6c63430007060033","opcodes":"PUSH1 0x80 PUSH1 0x40 MSTORE CALLVALUE DUP1 ISZERO PUSH2 0x10 JUMPI PUSH1 0x0 DUP1 REVERT JUMPDEST POP PUSH2 0x2CF DUP1 PUSH2 0x20 PUSH1 0x0 CODECOPY PUSH1 0x0 RETURN INVALID PUSH1 0x80 PUSH1 0x40 MSTORE CALLVALUE DUP1 ISZERO PUSH2 0x10 JUMPI PUSH1 0x0 DUP1 REVERT JUMPDEST POP PUSH1 0x4 CALLDATASIZE LT PUSH2 0x41 JUMPI PUSH1 0x0 CALLDATALOAD PUSH1 0xE0 SHR DUP1 PUSH4 0x11D8293E EQ PUSH2 0x46 JUMPI DUP1 PUSH4 0x6B44E6BE EQ PUSH2 0x9E JUMPI DUP1 PUSH4 0xEC56C716 EQ PUSH2 0xF8 JUMPI JUMPDEST PUSH1 0x0 DUP1 REVERT JUMPDEST PUSH2 0x72 PUSH1 0x4 DUP1 CALLDATASIZE SUB PUSH1 0x20 DUP2 LT ISZERO PUSH2 0x5C JUMPI PUSH1 0x0 DUP1 REVERT JUMPDEST DUP2 ADD SWAP1 DUP1 DUP1 CALLDATALOAD SWAP1 PUSH1 0x20 ADD SWAP1 SWAP3 SWAP2 SWAP1 POP POP POP PUSH2 0x116 JUMP JUMPDEST PUSH1 0x40 MLOAD DUP1 DUP3 PUSH20 0xFFFFFFFFFFFFFFFFFFFFFFFFFFFFFFFFFFFFFFFF AND DUP2 MSTORE PUSH1 0x20 ADD SWAP2 POP POP PUSH1 0x40 MLOAD DUP1 SWAP2 SUB SWAP1 RETURN JUMPDEST PUSH2 0xE0 PUSH1 0x4 DUP1 CALLDATASIZE SUB PUSH1 0x20 DUP2 LT ISZERO PUSH2 0xB4 JUMPI PUSH1 0x0 DUP1 REVERT JUMPDEST DUP2 ADD SWAP1 DUP1 DUP1 CALLDATALOAD PUSH20 0xFFFFFFFFFFFFFFFFFFFFFFFFFFFFFFFFFFFFFFFF AND SWAP1 PUSH1 0x20 ADD SWAP1 SWAP3 SWAP2 SWAP1 POP POP POP PUSH2 0x133 JUMP JUMPDEST PUSH1 0x40 MLOAD DUP1 DUP3 ISZERO ISZERO DUP2 MSTORE PUSH1 0x20 ADD SWAP2 POP POP PUSH1 0x40 MLOAD DUP1 SWAP2 SUB SWAP1 RETURN JUMPDEST PUSH2 0x100 PUSH2 0x150 JUMP JUMPDEST PUSH1 0x40 MLOAD DUP1 DUP3 DUP2 MSTORE PUSH1 0x20 ADD SWAP2 POP POP PUSH1 0x40 MLOAD DUP1 SWAP2 SUB SWAP1 RETURN JUMPDEST PUSH1 0x0 PUSH2 0x12C DUP3 PUSH1 0x0 PUSH2 0x161 SWAP1 SWAP2 SWAP1 PUSH4 0xFFFFFFFF AND JUMP JUMPDEST SWAP1 POP SWAP2 SWAP1 POP JUMP JUMPDEST PUSH1 0x0 PUSH2 0x149 DUP3 PUSH1 0x0 PUSH2 0x17B SWAP1 SWAP2 SWAP1 PUSH4 0xFFFFFFFF AND JUMP JUMPDEST SWAP1 POP SWAP2 SWAP1 POP JUMP JUMPDEST PUSH1 0x0 PUSH2 0x15C PUSH1 0x0 PUSH2 0x1AB JUMP JUMPDEST SWAP1 POP SWAP1 JUMP JUMPDEST PUSH1 0x0 PUSH2 0x170 DUP4 PUSH1 0x0 ADD DUP4 PUSH2 0x1C0 JUMP JUMPDEST PUSH1 0x0 SHR SWAP1 POP SWAP3 SWAP2 POP POP JUMP JUMPDEST PUSH1 0x0 PUSH2 0x1A3 DUP4 PUSH1 0x0 ADD DUP4 PUSH20 0xFFFFFFFFFFFFFFFFFFFFFFFFFFFFFFFFFFFFFFFF AND PUSH1 0x0 SHL PUSH2 0x243 JUMP JUMPDEST SWAP1 POP SWAP3 SWAP2 POP POP JUMP JUMPDEST PUSH1 0x0 PUSH2 0x1B9 DUP3 PUSH1 0x0 ADD PUSH2 0x266 JUMP JUMPDEST SWAP1 POP SWAP2 SWAP1 POP JUMP JUMPDEST PUSH1 0x0 DUP2 DUP4 PUSH1 0x0 ADD DUP1 SLOAD SWAP1 POP GT PUSH2 0x221 JUMPI PUSH1 0x40 MLOAD PUSH32 0x8C379A000000000000000000000000000000000000000000000000000000000 DUP2 MSTORE PUSH1 0x4 ADD DUP1 DUP1 PUSH1 0x20 ADD DUP3 DUP2 SUB DUP3 MSTORE PUSH1 0x22 DUP2 MSTORE PUSH1 0x20 ADD DUP1 PUSH2 0x278 PUSH1 0x22 SWAP2 CODECOPY PUSH1 0x40 ADD SWAP2 POP POP PUSH1 0x40 MLOAD DUP1 SWAP2 SUB SWAP1 REVERT JUMPDEST DUP3 PUSH1 0x0 ADD DUP3 DUP2 SLOAD DUP2 LT PUSH2 0x230 JUMPI INVALID JUMPDEST SWAP1 PUSH1 0x0 MSTORE PUSH1 0x20 PUSH1 0x0 KECCAK256 ADD SLOAD SWAP1 POP SWAP3 SWAP2 POP POP JUMP JUMPDEST PUSH1 0x0 DUP1 DUP4 PUSH1 0x1 ADD PUSH1 0x0 DUP5 DUP2 MSTORE PUSH1 0x20 ADD SWAP1 DUP2 MSTORE PUSH1 0x20 ADD PUSH1 0x0 KECCAK256 SLOAD EQ ISZERO SWAP1 POP SWAP3 SWAP2 POP POP JUMP JUMPDEST PUSH1 0x0 DUP2 PUSH1 0x0 ADD DUP1 SLOAD SWAP1 POP SWAP1 POP SWAP2 SWAP1 POP JUMP INVALID GASLIMIT PUSH15 0x756D657261626C655365743A20696E PUSH5 0x6578206F75 PUSH21 0x206F6620626F756E6473A264697066735822122034 SHR 0xB5 PUSH7 0x2E4204F4BE2B93 LOG3 PUSH13 0xBA03B76D6A06BFA4DEECC926CA TIMESTAMP RETURNDATACOPY 0xCE 0xCC 0x5C PUSH17 0x64736F6C63430007060033000000000000 "},"methodIdentifiers":{"instanceAt(uint256)":"11d8293e","instanceCount()":"ec56c716","isInstance(address)":"6b44e6be"}},"storageLayout":{"storage":[{"astId":4403,"contract":"contracts/Factory/InstanceRegistry.sol:InstanceRegistry","label":"_instanceSet","offset":0,"slot":"0","type":"t_struct(AddressSet)3584_storage"}],"types":{"t_array(t_bytes32)dyn_storage":{"base":"t_bytes32","encoding":"dynamic_array","label":"bytes32[]","numberOfBytes":"32"},"t_bytes32":{"encoding":"inplace","label":"bytes32","numberOfBytes":"32"},"t_mapping(t_bytes32,t_uint256)":{"encoding":"mapping","key":"t_bytes32","label":"mapping(bytes32 => uint256)","numberOfBytes":"32","value":"t_uint256"},"t_struct(AddressSet)3584_storage":{"encoding":"inplace","label":"struct EnumerableSet.AddressSet","members":[{"astId":3583,"contract":"contracts/Factory/InstanceRegistry.sol:InstanceRegistry","label":"_inner","offset":0,"slot":"0","type":"t_struct(Set)3319_storage"}],"numberOfBytes":"64"},"t_struct(Set)3319_storage":{"encoding":"inplace","label":"struct EnumerableSet.Set","members":[{"astId":3314,"contract":"contracts/Factory/InstanceRegistry.sol:InstanceRegistry","label":"_values","offset":0,"slot":"0","type":"t_array(t_bytes32)dyn_storage"},{"astId":3318,"contract":"contracts/Factory/InstanceRegistry.sol:InstanceRegistry","label":"_indexes","offset":0,"slot":"1","type":"t_mapping(t_bytes32,t_uint256)"}],"numberOfBytes":"64"},"t_uint256":{"encoding":"inplace","label":"uint256","numberOfBytes":"32"}}}}}}