{
  "_format": "hh-sol-artifact-1",
  "contractName": "StakingCenterFactory",
  "sourceName": "contracts/Factory/StakingCenterFactory.sol",
  "abi": [
    {
      "anonymous": false,
      "inputs": [
        {
          "indexed": false,
          "internalType": "address",
          "name": "instance",
          "type": "address"
        }
      ],
      "name": "InstanceAdded",
      "type": "event"
    },
    {
      "anonymous": false,
      "inputs": [
        {
          "indexed": false,
          "internalType": "address",
          "name": "instance",
          "type": "address"
        }
      ],
      "name": "InstanceRemoved",
      "type": "event"
    },
    {
      "anonymous": false,
      "inputs": [
        {
          "indexed": true,
          "internalType": "address",
          "name": "previousOwner",
          "type": "address"
        },
        {
          "indexed": true,
          "internalType": "address",
          "name": "newOwner",
          "type": "address"
        }
      ],
      "name": "OwnershipTransferred",
      "type": "event"
    },
    {
      "inputs": [
        {
          "internalType": "uint256",
          "name": "index",
          "type": "uint256"
        }
      ],
      "name": "instanceAt",
      "outputs": [
        {
          "internalType": "address",
          "name": "instance",
          "type": "address"
        }
      ],
      "stateMutability": "view",
      "type": "function"
    },
    {
      "inputs": [],
      "name": "instanceCount",
      "outputs": [
        {
          "internalType": "uint256",
          "name": "count",
          "type": "uint256"
        }
      ],
      "stateMutability": "view",
      "type": "function"
    },
    {
      "inputs": [
        {
          "internalType": "address",
          "name": "instance",
          "type": "address"
        }
      ],
      "name": "isInstance",
      "outputs": [
        {
          "internalType": "bool",
          "name": "validity",
          "type": "bool"
        }
      ],
      "stateMutability": "view",
      "type": "function"
    },
    {
      "inputs": [],
      "name": "owner",
      "outputs": [
        {
          "internalType": "address",
          "name": "",
          "type": "address"
        }
      ],
      "stateMutability": "view",
      "type": "function"
    },
    {
      "inputs": [
        {
          "internalType": "address",
          "name": "instance",
          "type": "address"
        }
      ],
      "name": "register",
      "outputs": [],
      "stateMutability": "nonpayable",
      "type": "function"
    },
    {
      "inputs": [],
      "name": "renounceOwnership",
      "outputs": [],
      "stateMutability": "nonpayable",
      "type": "function"
    },
    {
      "inputs": [
        {
          "internalType": "address",
          "name": "newOwner",
          "type": "address"
        }
      ],
      "name": "transferOwnership",
      "outputs": [],
      "stateMutability": "nonpayable",
      "type": "function"
    }
  ],
  "bytecode": "0x608060405234801561001057600080fd5b5060006100216100c560201b60201c565b905080600260006101000a81548173ffffffffffffffffffffffffffffffffffffffff021916908373ffffffffffffffffffffffffffffffffffffffff1602179055508073ffffffffffffffffffffffffffffffffffffffff16600073ffffffffffffffffffffffffffffffffffffffff167f8be0079c531659141344cd1fd0a4f28419497f9722a3daafe3b4186f6b6457e060405160405180910390a3506100cd565b600033905090565b6109c6806100dc6000396000f3fe608060405234801561001057600080fd5b506004361061007d5760003560e01c8063715018a61161005b578063715018a6146101785780638da5cb5b14610182578063ec56c716146101b6578063f2fde38b146101d45761007d565b806311d8293e146100825780634420e486146100da5780636b44e6be1461011e575b600080fd5b6100ae6004803603602081101561009857600080fd5b8101908080359060200190929190505050610218565b604051808273ffffffffffffffffffffffffffffffffffffffff16815260200191505060405180910390f35b61011c600480360360208110156100f057600080fd5b81019080803573ffffffffffffffffffffffffffffffffffffffff169060200190929190505050610235565b005b6101606004803603602081101561013457600080fd5b81019080803573ffffffffffffffffffffffffffffffffffffffff1690602001909291905050506102f0565b60405180821515815260200191505060405180910390f35b61018061030d565b005b61018a61047d565b604051808273ffffffffffffffffffffffffffffffffffffffff16815260200191505060405180910390f35b6101be6104a7565b6040518082815260200191505060405180910390f35b610216600480360360208110156101ea57600080fd5b81019080803573ffffffffffffffffffffffffffffffffffffffff1690602001909291905050506104b8565b005b600061022e8260006106ad90919063ffffffff16565b9050919050565b61023d6106c7565b73ffffffffffffffffffffffffffffffffffffffff1661025b61047d565b73ffffffffffffffffffffffffffffffffffffffff16146102e4576040517f08c379a00000000000000000000000000000000000000000000000000000000081526004018080602001828103825260208152602001807f4f776e61626c653a2063616c6c6572206973206e6f7420746865206f776e657281525060200191505060405180910390fd5b6102ed816106cf565b50565b600061030682600061078890919063ffffffff16565b9050919050565b6103156106c7565b73ffffffffffffffffffffffffffffffffffffffff1661033361047d565b73ffffffffffffffffffffffffffffffffffffffff16146103bc576040517f08c379a00000000000000000000000000000000000000000000000000000000081526004018080602001828103825260208152602001807f4f776e61626c653a2063616c6c6572206973206e6f7420746865206f776e657281525060200191505060405180910390fd5b600073ffffffffffffffffffffffffffffffffffffffff16600260009054906101000a900473ffffffffffffffffffffffffffffffffffffffff1673ffffffffffffffffffffffffffffffffffffffff167f8be0079c531659141344cd1fd0a4f28419497f9722a3daafe3b4186f6b6457e060405160405180910390a36000600260006101000a81548173ffffffffffffffffffffffffffffffffffffffff021916908373ffffffffffffffffffffffffffffffffffffffff160217905550565b6000600260009054906101000a900473ffffffffffffffffffffffffffffffffffffffff16905090565b60006104b360006107b8565b905090565b6104c06106c7565b73ffffffffffffffffffffffffffffffffffffffff166104de61047d565b73ffffffffffffffffffffffffffffffffffffffff1614610567576040517f08c379a00000000000000000000000000000000000000000000000000000000081526004018080602001828103825260208152602001807f4f776e61626c653a2063616c6c6572206973206e6f7420746865206f776e657281525060200191505060405180910390fd5b600073ffffffffffffffffffffffffffffffffffffffff168173ffffffffffffffffffffffffffffffffffffffff1614156105ed576040517f08c379a00000000000000000000000000000000000000000000000000000000081526004018080602001828103825260268152602001806109476026913960400191505060405180910390fd5b8073ffffffffffffffffffffffffffffffffffffffff16600260009054906101000a900473ffffffffffffffffffffffffffffffffffffffff1673ffffffffffffffffffffffffffffffffffffffff167f8be0079c531659141344cd1fd0a4f28419497f9722a3daafe3b4186f6b6457e060405160405180910390a380600260006101000a81548173ffffffffffffffffffffffffffffffffffffffff021916908373ffffffffffffffffffffffffffffffffffffffff16021790555050565b60006106bc83600001836107cd565b60001c905092915050565b600033905090565b6106e381600061085090919063ffffffff16565b610738576040517f08c379a000000000000000000000000000000000000000000000000000000000815260040180806020018281038252602481526020018061096d6024913960400191505060405180910390fd5b7fee3a98e49d5a27452a99d57c90a7f73d4b2e44de88c6ded02e69c4ed964edd5a81604051808273ffffffffffffffffffffffffffffffffffffffff16815260200191505060405180910390a150565b60006107b0836000018373ffffffffffffffffffffffffffffffffffffffff1660001b610880565b905092915050565b60006107c6826000016108a3565b9050919050565b60008183600001805490501161082e576040517f08c379a00000000000000000000000000000000000000000000000000000000081526004018080602001828103825260228152602001806109256022913960400191505060405180910390fd5b82600001828154811061083d57fe5b9060005260206000200154905092915050565b6000610878836000018373ffffffffffffffffffffffffffffffffffffffff1660001b6108b4565b905092915050565b600080836001016000848152602001908152602001600020541415905092915050565b600081600001805490509050919050565b60006108c08383610880565b61091957826000018290806001815401808255809150506001900390600052602060002001600090919091909150558260000180549050836001016000848152602001908152602001600020819055506001905061091e565b600090505b9291505056fe456e756d657261626c655365743a20696e646578206f7574206f6620626f756e64734f776e61626c653a206e6577206f776e657220697320746865207a65726f2061646472657373496e7374616e636552656769737472793a20616c72656164792072656769737465726564a2646970667358221220b973f43d1f11f5782819a567cd68061161c989774d6a3b032718b8544970a60564736f6c63430007060033",
  "linkReferences": {},
  "deployedLinkReferences": {}
}