{
  "_format": "hh-sol-artifact-1",
  "contractName": "InstanceRegistry",
  "sourceName": "contracts/Factory/InstanceRegistry.sol",
  "abi": [
    {
      "anonymous": false,
      "inputs": [
        {
          "indexed": false,
          "internalType": "address",
          "name": "instance",
          "type": "address"
        }
      ],
      "name": "InstanceAdded",
      "type": "event"
    },
    {
      "anonymous": false,
      "inputs": [
        {
          "indexed": false,
          "internalType": "address",
          "name": "instance",
          "type": "address"
        }
      ],
      "name": "InstanceRemoved",
      "type": "event"
    },
    {
      "inputs": [
        {
          "internalType": "uint256",
          "name": "index",
          "type": "uint256"
        }
      ],
      "name": "instanceAt",
      "outputs": [
        {
          "internalType": "address",
          "name": "instance",
          "type": "address"
        }
      ],
      "stateMutability": "view",
      "type": "function"
    },
    {
      "inputs": [],
      "name": "instanceCount",
      "outputs": [
        {
          "internalType": "uint256",
          "name": "count",
          "type": "uint256"
        }
      ],
      "stateMutability": "view",
      "type": "function"
    },
    {
      "inputs": [
        {
          "internalType": "address",
          "name": "instance",
          "type": "address"
        }
      ],
      "name": "isInstance",
      "outputs": [
        {
          "internalType": "bool",
          "name": "validity",
          "type": "bool"
        }
      ],
      "stateMutability": "view",
      "type": "function"
    }
  ],
  "bytecode": "0x608060405234801561001057600080fd5b506102cf806100206000396000f3fe608060405234801561001057600080fd5b50600436106100415760003560e01c806311d8293e146100465780636b44e6be1461009e578063ec56c716146100f8575b600080fd5b6100726004803603602081101561005c57600080fd5b8101908080359060200190929190505050610116565b604051808273ffffffffffffffffffffffffffffffffffffffff16815260200191505060405180910390f35b6100e0600480360360208110156100b457600080fd5b81019080803573ffffffffffffffffffffffffffffffffffffffff169060200190929190505050610133565b60405180821515815260200191505060405180910390f35b610100610150565b6040518082815260200191505060405180910390f35b600061012c82600061016190919063ffffffff16565b9050919050565b600061014982600061017b90919063ffffffff16565b9050919050565b600061015c60006101ab565b905090565b600061017083600001836101c0565b60001c905092915050565b60006101a3836000018373ffffffffffffffffffffffffffffffffffffffff1660001b610243565b905092915050565b60006101b982600001610266565b9050919050565b600081836000018054905011610221576040517f08c379a00000000000000000000000000000000000000000000000000000000081526004018080602001828103825260228152602001806102786022913960400191505060405180910390fd5b82600001828154811061023057fe5b9060005260206000200154905092915050565b600080836001016000848152602001908152602001600020541415905092915050565b60008160000180549050905091905056fe456e756d657261626c655365743a20696e646578206f7574206f6620626f756e6473a2646970667358221220341cb5662e4204f4be2b93a36cba03b76d6a06bfa4deecc926ca423ececc5c7064736f6c63430007060033",
  "linkReferences": {},
  "deployedLinkReferences": {}
}