{
  "_format": "hh-sol-artifact-1",
  "contractName": "Vault",
  "sourceName": "contracts/Vault.sol",
  "abi": [
    {
      "anonymous": false,
      "inputs": [
        {
          "indexed": false,
          "internalType": "address",
          "name": "delegate",
          "type": "address"
        },
        {
          "indexed": false,
          "internalType": "address",
          "name": "token",
          "type": "address"
        },
        {
          "indexed": false,
          "internalType": "uint256",
          "name": "amount",
          "type": "uint256"
        }
      ],
      "name": "Locked",
      "type": "event"
    },
    {
      "anonymous": false,
      "inputs": [
        {
          "indexed": false,
          "internalType": "address",
          "name": "delegate",
          "type": "address"
        },
        {
          "indexed": false,
          "internalType": "address",
          "name": "token",
          "type": "address"
        },
        {
          "indexed": false,
          "internalType": "bool",
          "name": "notified",
          "type": "bool"
        },
        {
          "indexed": false,
          "internalType": "string",
          "name": "reason",
          "type": "string"
        }
      ],
      "name": "RageQuit",
      "type": "event"
    },
    {
      "anonymous": false,
      "inputs": [
        {
          "indexed": false,
          "internalType": "address",
          "name": "delegate",
          "type": "address"
        },
        {
          "indexed": false,
          "internalType": "address",
          "name": "token",
          "type": "address"
        },
        {
          "indexed": false,
          "internalType": "uint256",
          "name": "amount",
          "type": "uint256"
        }
      ],
      "name": "Unlocked",
      "type": "event"
    },
    {
      "inputs": [],
      "name": "LOCK_TYPEHASH",
      "outputs": [
        {
          "internalType": "bytes32",
          "name": "",
          "type": "bytes32"
        }
      ],
      "stateMutability": "view",
      "type": "function"
    },
    {
      "inputs": [],
      "name": "RAGEQUIT_GAS",
      "outputs": [
        {
          "internalType": "uint256",
          "name": "",
          "type": "uint256"
        }
      ],
      "stateMutability": "view",
      "type": "function"
    },
    {
      "inputs": [],
      "name": "UNLOCK_TYPEHASH",
      "outputs": [
        {
          "internalType": "bytes32",
          "name": "",
          "type": "bytes32"
        }
      ],
      "stateMutability": "view",
      "type": "function"
    },
    {
      "inputs": [
        {
          "internalType": "address",
          "name": "delegate",
          "type": "address"
        },
        {
          "internalType": "address",
          "name": "token",
          "type": "address"
        }
      ],
      "name": "calculateLockID",
      "outputs": [
        {
          "internalType": "bytes32",
          "name": "lockID",
          "type": "bytes32"
        }
      ],
      "stateMutability": "pure",
      "type": "function"
    },
    {
      "inputs": [],
      "name": "checkBalances",
      "outputs": [
        {
          "internalType": "bool",
          "name": "validity",
          "type": "bool"
        }
      ],
      "stateMutability": "view",
      "type": "function"
    },
    {
      "inputs": [
        {
          "internalType": "address",
          "name": "token",
          "type": "address"
        },
        {
          "internalType": "address",
          "name": "delegate",
          "type": "address"
        }
      ],
      "name": "getBalanceDelegated",
      "outputs": [
        {
          "internalType": "uint256",
          "name": "balance",
          "type": "uint256"
        }
      ],
      "stateMutability": "view",
      "type": "function"
    },
    {
      "inputs": [
        {
          "internalType": "address",
          "name": "token",
          "type": "address"
        }
      ],
      "name": "getBalanceLocked",
      "outputs": [
        {
          "internalType": "uint256",
          "name": "balance",
          "type": "uint256"
        }
      ],
      "stateMutability": "view",
      "type": "function"
    },
    {
      "inputs": [
        {
          "internalType": "uint256",
          "name": "index",
          "type": "uint256"
        }
      ],
      "name": "getLockAt",
      "outputs": [
        {
          "components": [
            {
              "internalType": "address",
              "name": "delegate",
              "type": "address"
            },
            {
              "internalType": "address",
              "name": "token",
              "type": "address"
            },
            {
              "internalType": "uint256",
              "name": "balance",
              "type": "uint256"
            }
          ],
          "internalType": "struct IUniversalVault.LockData",
          "name": "lockData",
          "type": "tuple"
        }
      ],
      "stateMutability": "view",
      "type": "function"
    },
    {
      "inputs": [],
      "name": "getLockSetCount",
      "outputs": [
        {
          "internalType": "uint256",
          "name": "count",
          "type": "uint256"
        }
      ],
      "stateMutability": "view",
      "type": "function"
    },
    {
      "inputs": [],
      "name": "getNonce",
      "outputs": [
        {
          "internalType": "uint256",
          "name": "nonce",
          "type": "uint256"
        }
      ],
      "stateMutability": "view",
      "type": "function"
    },
    {
      "inputs": [
        {
          "internalType": "bytes32",
          "name": "eip712TypeHash",
          "type": "bytes32"
        },
        {
          "internalType": "address",
          "name": "delegate",
          "type": "address"
        },
        {
          "internalType": "address",
          "name": "token",
          "type": "address"
        },
        {
          "internalType": "uint256",
          "name": "amount",
          "type": "uint256"
        },
        {
          "internalType": "uint256",
          "name": "nonce",
          "type": "uint256"
        }
      ],
      "name": "getPermissionHash",
      "outputs": [
        {
          "internalType": "bytes32",
          "name": "permissionHash",
          "type": "bytes32"
        }
      ],
      "stateMutability": "view",
      "type": "function"
    },
    {
      "inputs": [],
      "name": "initialize",
      "outputs": [],
      "stateMutability": "nonpayable",
      "type": "function"
    },
    {
      "inputs": [],
      "name": "initializeLock",
      "outputs": [],
      "stateMutability": "nonpayable",
      "type": "function"
    },
    {
      "inputs": [
        {
          "internalType": "bytes32",
          "name": "permissionHash",
          "type": "bytes32"
        },
        {
          "internalType": "bytes",
          "name": "signature",
          "type": "bytes"
        }
      ],
      "name": "isValidSignature",
      "outputs": [
        {
          "internalType": "bytes4",
          "name": "",
          "type": "bytes4"
        }
      ],
      "stateMutability": "view",
      "type": "function"
    },
    {
      "inputs": [
        {
          "internalType": "address",
          "name": "token",
          "type": "address"
        },
        {
          "internalType": "uint256",
          "name": "amount",
          "type": "uint256"
        },
        {
          "internalType": "bytes",
          "name": "permission",
          "type": "bytes"
        }
      ],
      "name": "lock",
      "outputs": [],
      "stateMutability": "nonpayable",
      "type": "function"
    },
    {
      "inputs": [],
      "name": "nft",
      "outputs": [
        {
          "internalType": "address",
          "name": "nftAddress",
          "type": "address"
        }
      ],
      "stateMutability": "view",
      "type": "function"
    },
    {
      "inputs": [],
      "name": "owner",
      "outputs": [
        {
          "internalType": "address",
          "name": "ownerAddress",
          "type": "address"
        }
      ],
      "stateMutability": "view",
      "type": "function"
    },
    {
      "inputs": [
        {
          "internalType": "address",
          "name": "delegate",
          "type": "address"
        },
        {
          "internalType": "address",
          "name": "token",
          "type": "address"
        }
      ],
      "name": "rageQuit",
      "outputs": [
        {
          "internalType": "bool",
          "name": "notified",
          "type": "bool"
        },
        {
          "internalType": "string",
          "name": "error",
          "type": "string"
        }
      ],
      "stateMutability": "nonpayable",
      "type": "function"
    },
    {
      "inputs": [
        {
          "internalType": "address",
          "name": "token",
          "type": "address"
        },
        {
          "internalType": "address",
          "name": "to",
          "type": "address"
        },
        {
          "internalType": "uint256",
          "name": "amount",
          "type": "uint256"
        }
      ],
      "name": "transferERC20",
      "outputs": [],
      "stateMutability": "nonpayable",
      "type": "function"
    },
    {
      "inputs": [
        {
          "internalType": "address",
          "name": "to",
          "type": "address"
        },
        {
          "internalType": "uint256",
          "name": "amount",
          "type": "uint256"
        }
      ],
      "name": "transferETH",
      "outputs": [],
      "stateMutability": "payable",
      "type": "function"
    },
    {
      "inputs": [
        {
          "internalType": "address",
          "name": "token",
          "type": "address"
        },
        {
          "internalType": "uint256",
          "name": "amount",
          "type": "uint256"
        },
        {
          "internalType": "bool",
          "name": "send",
          "type": "bool"
        },
        {
          "internalType": "bytes",
          "name": "permission",
          "type": "bytes"
        }
      ],
      "name": "unlock",
      "outputs": [],
      "stateMutability": "nonpayable",
      "type": "function"
    },
    {
      "stateMutability": "payable",
      "type": "receive"
    }
  ],
  "bytecode": "0x60c060405234801561001057600080fd5b506040518060400160405280600e81526020017f556e6976657273616c5661756c740000000000000000000000000000000000008152506040518060400160405280600581526020017f312e302e30000000000000000000000000000000000000000000000000000000815250818051906020012060808181525050808051906020012060a08181525050505060805160a0516132f96100c06000398061259752508061256f52506132f96000f3fe60806040526004361061012e5760003560e01c80638129fc1c116100ab5780639db1d6b51161006f5780639db1d6b5146103f25780639db5dbe4146104305780639e241e8514610459578063b292462014610484578063c792f45d146104af578063d087d288146104d857610135565b80638129fc1c1461031d5780638c8ca33c146103345780638da5cb5b1461035f5780638f9c197b1461038a5780639d505d3d146103c757610135565b806349bf7894116100f257806349bf7894146102455780635aef521e1461028257806370680c1a146102bf5780637b1a4909146102ea5780637df98acf1461030657610135565b80630d4f581a1461013a5780631626ba7e146101775780631ba3fd20146101b45780632466de6c146101dd57806347ccca021461021a57610135565b3661013557005b600080fd5b34801561014657600080fd5b50610161600480360381019061015c9190612a41565b610503565b60405161016e9190612e9c565b60405180910390f35b34801561018357600080fd5b5061019e600480360381019061019991906129ed565b6105f9565b6040516101ab9190612e21565b60405180910390f35b3480156101c057600080fd5b506101db60048036038101906101d6919061288a565b61062c565b005b3480156101e957600080fd5b5061020460048036038101906101ff91906127c3565b61091f565b6040516102119190612eb7565b60405180910390f35b34801561022657600080fd5b5061022f610949565b60405161023c9190612caf565b60405180910390f35b34801561025157600080fd5b5061026c60048036038101906102679190612976565b610972565b6040516102799190612db3565b60405180910390f35b34801561028e57600080fd5b506102a960048036038101906102a491906127c3565b6109b6565b6040516102b69190612db3565b60405180910390f35b3480156102cb57600080fd5b506102d46109e9565b6040516102e19190612eb7565b60405180910390f35b61030460048036038101906102ff919061284e565b6109fa565b005b34801561031257600080fd5b5061031b610a93565b005b34801561032957600080fd5b50610332610b94565b005b34801561034057600080fd5b50610349610c9e565b6040516103569190612db3565b60405180910390f35b34801561036b57600080fd5b50610374610cc2565b6040516103819190612caf565b60405180910390f35b34801561039657600080fd5b506103b160048036038101906103ac919061279a565b610cd1565b6040516103be9190612eb7565b60405180910390f35b3480156103d357600080fd5b506103dc610d99565b6040516103e99190612eb7565b60405180910390f35b3480156103fe57600080fd5b50610419600480360381019061041491906127c3565b610da0565b604051610427929190612d83565b60405180910390f35b34801561043c57600080fd5b50610457600480360381019061045291906127ff565b61108a565b005b34801561046557600080fd5b5061046e61120a565b60405161047b9190612d68565b60405180910390f35b34801561049057600080fd5b5061049961132a565b6040516104a69190612db3565b60405180910390f35b3480156104bb57600080fd5b506104d660048036038101906104d1919061290a565b61134e565b005b3480156104e457600080fd5b506104ed611739565b6040516104fa9190612eb7565b60405180910390f35b61050b612632565b6002600061052384600361174390919063ffffffff16565b81526020019081526020016000206040518060600160405290816000820160009054906101000a900473ffffffffffffffffffffffffffffffffffffffff1673ffffffffffffffffffffffffffffffffffffffff1673ffffffffffffffffffffffffffffffffffffffff1681526020016001820160009054906101000a900473ffffffffffffffffffffffffffffffffffffffff1673ffffffffffffffffffffffffffffffffffffffff1673ffffffffffffffffffffffffffffffffffffffff1681526020016002820154815250509050919050565b600061060d61060661175a565b8484611769565b61061b57600060e01b610624565b631626ba7e60e01b5b905092915050565b61065b7f8d081d812ea189de0af9ba525d04569d14ba76f44bb76dd835c0e6b4420ba59d338787600154610972565b82828080601f016020809104026020016040519081016040528093929190818152602001838380828437600081840152601f19601f82011690508083019250505050505050631626ba7e60e01b7bffffffffffffffffffffffffffffffffffffffffffffffffffffffff19166106d183836105f9565b7bffffffffffffffffffffffffffffffffffffffffffffffffffffffff191614610763576040517f08c379a000000000000000000000000000000000000000000000000000000000815260040180806020018281038252601a8152602001807f455243313237313a20496e76616c6964207369676e617475726500000000000081525060200191505060405180910390fd5b600061076f33896109b6565b90506107858160036119e490919063ffffffff16565b6107c4576040517f08c379a00000000000000000000000000000000000000000000000000000000081526004016107bb90612e7c565b60405180910390fd5b866002600083815260200190815260200160002060020154111561082a5761080b8760026000848152602001908152602001600020600201546119fb90919063ffffffff16565b60026000838152602001908152602001600020600201819055506108b1565b60026000828152602001908152602001600020600080820160006101000a81549073ffffffffffffffffffffffffffffffffffffffff02191690556001820160006101000a81549073ffffffffffffffffffffffffffffffffffffffff0219169055600282016000905550506108aa816003611a7e90919063ffffffff16565b6108b057fe5b5b600180600082825401925050819055507fe6e0ef9cd056ca98561ca60e347ada61e1ede2f1142a078951b7a52e1e508e603389896040516108f493929190612ce5565b60405180910390a18515610915576109148861090e61175a565b89611a95565b5b5050505050505050565b60006002600061092f84866109b6565b815260200190815260200160002060020154905092915050565b60008060009054906101000a900473ffffffffffffffffffffffffffffffffffffffff16905090565b60006109ab8686868686604051602001610990959493929190612dce565b60405160208183030381529060405280519060200120611c5a565b905095945050505050565b600082826040516020016109cb929190612c83565b60405160208183030381529060405280519060200120905092915050565b60006109f56003611cc1565b905090565b3373ffffffffffffffffffffffffffffffffffffffff16610a19610cc2565b73ffffffffffffffffffffffffffffffffffffffff1614610a85576040517f08c379a00000000000000000000000000000000000000000000000000000000081526004018080602001828103825260268152602001806131a96026913960400191505060405180910390fd5b610a8f8282611cd6565b5050565b600060159054906101000a900460ff1680610ab25750610ab1611e35565b5b80610aca5750600060149054906101000a900460ff16155b610b1f576040517f08c379a000000000000000000000000000000000000000000000000000000000815260040180806020018281038252602e815260200180613247602e913960400191505060405180910390fd5b60008060159054906101000a900460ff161590508015610b70576001600060156101000a81548160ff0219169083151502179055506001600060146101000a81548160ff0219169083151502179055505b8015610b915760008060156101000a81548160ff0219169083151502179055505b50565b600060159054906101000a900460ff1680610bb35750610bb2611e35565b5b80610bcb5750600060149054906101000a900460ff16155b610c20576040517f08c379a000000000000000000000000000000000000000000000000000000000815260040180806020018281038252602e815260200180613247602e913960400191505060405180910390fd5b60008060159054906101000a900460ff161590508015610c71576001600060156101000a81548160ff0219169083151502179055506001600060146101000a81548160ff0219169083151502179055505b610c7a33611e46565b8015610c9b5760008060156101000a81548160ff0219169083151502179055505b50565b7f8d081d812ea189de0af9ba525d04569d14ba76f44bb76dd835c0e6b4420ba59d81565b6000610ccc611e89565b905090565b600080610cde6003611cc1565b905060005b81811015610d9257600060026000610d0584600361174390919063ffffffff16565b815260200190815260200160002090508473ffffffffffffffffffffffffffffffffffffffff168160010160009054906101000a900473ffffffffffffffffffffffffffffffffffffffff1673ffffffffffffffffffffffffffffffffffffffff16148015610d775750838160020154115b15610d8457806002015493505b508080600101915050610ce3565b5050919050565b6207a12081565b600060603373ffffffffffffffffffffffffffffffffffffffff16610dc3610cc2565b73ffffffffffffffffffffffffffffffffffffffff1614610e2f576040517f08c379a00000000000000000000000000000000000000000000000000000000081526004018080602001828103825260268152602001806131a96026913960400191505060405180910390fd5b6000610e3b85856109b6565b9050610e518160036119e490919063ffffffff16565b610e90576040517f08c379a0000000000000000000000000000000000000000000000000000000008152600401610e8790612e7c565b60405180910390fd5b610eaf8573ffffffffffffffffffffffffffffffffffffffff16611f53565b15610fbf576207a1205a1015610efa576040517f08c379a0000000000000000000000000000000000000000000000000000000008152600401610ef190612e5c565b60405180910390fd5b8473ffffffffffffffffffffffffffffffffffffffff1663b0ccbf8c6207a1206040518263ffffffff1660e01b8152600401600060405180830381600088803b158015610f4657600080fd5b5087f193505050508015610f58575060015b610fb957610f64613096565b80610f6f5750610f7c565b6000935080925050610fb4565b3d8060008114610fa8576040519150601f19603f3d011682016040523d82523d6000602084013e610fad565b606091505b5060009350505b610fbe565b600192505b5b610fd3816003611a7e90919063ffffffff16565b610fd957fe5b60026000828152602001908152602001600020600080820160006101000a81549073ffffffffffffffffffffffffffffffffffffffff02191690556001820160006101000a81549073ffffffffffffffffffffffffffffffffffffffff0219169055600282016000905550507f5d48c8b472b6f0a3febb35fe2b008421cdfbe2dd7d042218ac8b749634dc8a448585858560405161107a9493929190612d1c565b60405180910390a1509250929050565b3373ffffffffffffffffffffffffffffffffffffffff166110a9610cc2565b73ffffffffffffffffffffffffffffffffffffffff1614611115576040517f08c379a00000000000000000000000000000000000000000000000000000000081526004018080602001828103825260268152602001806131a96026913960400191505060405180910390fd5b6111308161112285610cd1565b611f6690919063ffffffff16565b8373ffffffffffffffffffffffffffffffffffffffff166370a08231306040518263ffffffff1660e01b81526004016111699190612cca565b60206040518083038186803b15801561118157600080fd5b505afa158015611195573d6000803e3d6000fd5b505050506040513d601f19601f820116820180604052508101906111b99190612a6a565b10156111fa576040517f08c379a00000000000000000000000000000000000000000000000000000000081526004016111f190612e3c565b60405180910390fd5b611205838383611a95565b505050565b6000806112176003611cc1565b905060005b818110156113205760006002600061123e84600361174390919063ffffffff16565b8152602001908152602001600020905080600201548160010160009054906101000a900473ffffffffffffffffffffffffffffffffffffffff1673ffffffffffffffffffffffffffffffffffffffff166370a08231306040518263ffffffff1660e01b81526004016112b09190612cca565b60206040518083038186803b1580156112c857600080fd5b505afa1580156112dc573d6000803e3d6000fd5b505050506040513d601f19601f820116820180604052508101906113009190612a6a565b10156113125760009350505050611327565b50808060010191505061121c565b5060019150505b90565b7f99f44e6d92879b0ecb41f31dfd2375411849ee710a4f55d3d17a6d02659b241581565b61137d7f99f44e6d92879b0ecb41f31dfd2375411849ee710a4f55d3d17a6d02659b2415338686600154610972565b82828080601f016020809104026020016040519081016040528093929190818152602001838380828437600081840152601f19601f82011690508083019250505050505050631626ba7e60e01b7bffffffffffffffffffffffffffffffffffffffffffffffffffffffff19166113f383836105f9565b7bffffffffffffffffffffffffffffffffffffffffffffffffffffffff191614611485576040517f08c379a000000000000000000000000000000000000000000000000000000000815260040180806020018281038252601a8152602001807f455243313237313a20496e76616c6964207369676e617475726500000000000081525060200191505060405180910390fd5b600061149133886109b6565b90506114a78160036119e490919063ffffffff16565b156114f4576114d5866002600084815260200190815260200160002060020154611f6690919063ffffffff16565b6002600083815260200190815260200160002060020181905550611604565b611508816003611fee90919063ffffffff16565b61150e57fe5b60405180606001604052803373ffffffffffffffffffffffffffffffffffffffff1681526020018873ffffffffffffffffffffffffffffffffffffffff168152602001878152506002600083815260200190815260200160002060008201518160000160006101000a81548173ffffffffffffffffffffffffffffffffffffffff021916908373ffffffffffffffffffffffffffffffffffffffff16021790555060208201518160010160006101000a81548173ffffffffffffffffffffffffffffffffffffffff021916908373ffffffffffffffffffffffffffffffffffffffff160217905550604082015181600201559050505b60026000828152602001908152602001600020600201548773ffffffffffffffffffffffffffffffffffffffff166370a08231306040518263ffffffff1660e01b81526004016116549190612cca565b60206040518083038186803b15801561166c57600080fd5b505afa158015611680573d6000803e3d6000fd5b505050506040513d601f19601f820116820180604052508101906116a49190612a6a565b10156116e5576040517f08c379a00000000000000000000000000000000000000000000000000000000081526004016116dc90612e3c565b60405180910390fd5b600180600082825401925050819055507f989eaa915cbb416ea3d6f9a63b1a3de51770c7674b11fe21ecdf76b4e1d1391033888860405161172893929190612ce5565b60405180910390a150505050505050565b6000600154905090565b60006117528360000183612005565b905092915050565b6000611764611e89565b905090565b600061177484611f53565b15611991576000631626ba7e60e01b90506000808673ffffffffffffffffffffffffffffffffffffffff168387876040516024018083815260200180602001828103825283818151815260200191508051906020019080838360005b838110156117eb5780820151818401526020810190506117d0565b50505050905090810190601f1680156118185780820380516001836020036101000a031916815260200191505b509350505050604051602081830303815290604052907bffffffffffffffffffffffffffffffffffffffffffffffffffffffff19166020820180517bffffffffffffffffffffffffffffffffffffffffffffffffffffffff83818316178352505050506040518082805190602001908083835b602083106118ae578051825260208201915060208101905060208303925061188b565b6001836020036101000a038019825116818451168082178552505050505050905001915050600060405180830381855afa9150503d806000811461190e576040519150601f19603f3d011682016040523d82523d6000602084013e611913565b606091505b50915091508180156119875750827bffffffffffffffffffffffffffffffffffffffffffffffffffffffff191681806020019051602081101561195557600080fd5b81019080805190602001909291905050507bffffffffffffffffffffffffffffffffffffffffffffffffffffffff1916145b93505050506119dd565b8373ffffffffffffffffffffffffffffffffffffffff166119c3836119b586612088565b6120e090919063ffffffff16565b73ffffffffffffffffffffffffffffffffffffffff161490505b9392505050565b60006119f3836000018361218d565b905092915050565b600082821115611a73576040517f08c379a000000000000000000000000000000000000000000000000000000000815260040180806020018281038252601e8152602001807f536166654d6174683a207375627472616374696f6e206f766572666c6f77000081525060200191505060405180910390fd5b818303905092915050565b6000611a8d83600001836121b0565b905092915050565b6000808473ffffffffffffffffffffffffffffffffffffffff1663a9059cbb8585604051602401808373ffffffffffffffffffffffffffffffffffffffff168152602001828152602001925050506040516020818303038152906040529060e01b6020820180517bffffffffffffffffffffffffffffffffffffffffffffffffffffffff83818316178352505050506040518082805190602001908083835b60208310611b575780518252602082019150602081019050602083039250611b34565b6001836020036101000a0380198251168184511680821785525050505050509050019150506000604051808303816000865af19150503d8060008114611bb9576040519150601f19603f3d011682016040523d82523d6000602084013e611bbe565b606091505b5091509150818015611bfe5750600081511480611bfd5750808060200190516020811015611beb57600080fd5b81019080805190602001909291905050505b5b611c53576040517f08c379a000000000000000000000000000000000000000000000000000000000815260040180806020018281038252602d815260200180613297602d913960400191505060405180910390fd5b5050505050565b6000611c64612298565b8260405160200180807f190100000000000000000000000000000000000000000000000000000000000081525060020183815260200182815260200192505050604051602081830303815290604052805190602001209050919050565b6000611ccf826000016122d8565b9050919050565b60008273ffffffffffffffffffffffffffffffffffffffff1682600067ffffffffffffffff81118015611d0857600080fd5b506040519080825280601f01601f191660200182016040528015611d3b5781602001600182028036833780820191505090505b506040518082805190602001908083835b60208310611d6f5780518252602082019150602081019050602083039250611d4c565b6001836020036101000a03801982511681845116808217855250505050505090500191505060006040518083038185875af1925050503d8060008114611dd1576040519150601f19603f3d011682016040523d82523d6000602084013e611dd6565b606091505b5050905080611e30576040517f08c379a00000000000000000000000000000000000000000000000000000000081526004018080602001828103825260348152602001806131f16034913960400191505060405180910390fd5b505050565b6000611e40306122e9565b15905090565b806000806101000a81548173ffffffffffffffffffffffffffffffffffffffff021916908373ffffffffffffffffffffffffffffffffffffffff16021790555050565b60008060009054906101000a900473ffffffffffffffffffffffffffffffffffffffff1673ffffffffffffffffffffffffffffffffffffffff16636352211e3073ffffffffffffffffffffffffffffffffffffffff166040518263ffffffff1660e01b81526004018082815260200191505060206040518083038186803b158015611f1357600080fd5b505afa158015611f27573d6000803e3d6000fd5b505050506040513d6020811015611f3d57600080fd5b8101908080519060200190929190505050905090565b600080823b905060008111915050919050565b600080828401905083811015611fe4576040517f08c379a000000000000000000000000000000000000000000000000000000000815260040180806020018281038252601b8152602001807f536166654d6174683a206164646974696f6e206f766572666c6f77000000000081525060200191505060405180910390fd5b8091505092915050565b6000611ffd83600001836122fc565b905092915050565b600081836000018054905011612066576040517f08c379a00000000000000000000000000000000000000000000000000000000081526004018080602001828103825260228152602001806131cf6022913960400191505060405180910390fd5b82600001828154811061207557fe5b9060005260206000200154905092915050565b60008160405160200180807f19457468657265756d205369676e6564204d6573736167653a0a333200000000815250601c01828152602001915050604051602081830303815290604052805190602001209050919050565b60006041825114612159576040517f08c379a000000000000000000000000000000000000000000000000000000000815260040180806020018281038252601f8152602001807f45434453413a20696e76616c6964207369676e6174757265206c656e6774680081525060200191505060405180910390fd5b60008060006020850151925060408501519150606085015160001a90506121828682858561236c565b935050505092915050565b600080836001016000848152602001908152602001600020541415905092915050565b6000808360010160008481526020019081526020016000205490506000811461228c57600060018203905060006001866000018054905003905060008660000182815481106121fb57fe5b906000526020600020015490508087600001848154811061221857fe5b906000526020600020018190555060018301876001016000838152602001908152602001600020819055508660000180548061225057fe5b60019003818190600052602060002001600090559055866001016000878152602001908152602001600020600090556001945050505050612292565b60009150505b92915050565b60006122d37f8b73c3c69bb8fe3d512ecc4cf759cc79239f7b179b0ffacaa9a75d522b39400f6122c661256b565b6122ce612593565b6125bb565b905090565b600081600001805490509050919050565b600080823b905060008111915050919050565b6000612308838361218d565b612361578260000182908060018154018082558091505060019003906000526020600020016000909190919091505582600001805490508360010160008481526020019081526020016000208190555060019050612366565b600090505b92915050565b60007f7fffffffffffffffffffffffffffffff5d576e7357a4501ddfe92f46681b20a08260001c11156123ea576040517f08c379a00000000000000000000000000000000000000000000000000000000081526004018080602001828103825260228152602001806132256022913960400191505060405180910390fd5b601b8460ff1614806123ff5750601c8460ff16145b612454576040517f08c379a00000000000000000000000000000000000000000000000000000000081526004018080602001828103825260228152602001806132756022913960400191505060405180910390fd5b600060018686868660405160008152602001604052604051808581526020018460ff1681526020018381526020018281526020019450505050506020604051602081039080840390855afa1580156124b0573d6000803e3d6000fd5b505050602060405103519050600073ffffffffffffffffffffffffffffffffffffffff168173ffffffffffffffffffffffffffffffffffffffff16141561255f576040517f08c379a00000000000000000000000000000000000000000000000000000000081526004018080602001828103825260188152602001807f45434453413a20696e76616c6964207369676e6174757265000000000000000081525060200191505060405180910390fd5b80915050949350505050565b60007f0000000000000000000000000000000000000000000000000000000000000000905090565b60007f0000000000000000000000000000000000000000000000000000000000000000905090565b60008383836125c861262a565b30604051602001808681526020018581526020018481526020018381526020018273ffffffffffffffffffffffffffffffffffffffff168152602001955050505050506040516020818303038152906040528051906020012090509392505050565b600046905090565b6040518060600160405280600073ffffffffffffffffffffffffffffffffffffffff168152602001600073ffffffffffffffffffffffffffffffffffffffff168152602001600081525090565b600061269261268d84612f03565b612ed2565b9050828152602081018484840111156126aa57600080fd5b6126b5848285613003565b509392505050565b6000813590506126cc8161314c565b92915050565b6000813590506126e181613163565b92915050565b6000813590506126f68161317a565b92915050565b60008083601f84011261270e57600080fd5b8235905067ffffffffffffffff81111561272757600080fd5b60208301915083600182028301111561273f57600080fd5b9250929050565b600082601f83011261275757600080fd5b813561276784826020860161267f565b91505092915050565b60008135905061277f81613191565b92915050565b60008151905061279481613191565b92915050565b6000602082840312156127ac57600080fd5b60006127ba848285016126bd565b91505092915050565b600080604083850312156127d657600080fd5b60006127e4858286016126bd565b92505060206127f5858286016126bd565b9150509250929050565b60008060006060848603121561281457600080fd5b6000612822868287016126bd565b9350506020612833868287016126bd565b925050604061284486828701612770565b9150509250925092565b6000806040838503121561286157600080fd5b600061286f858286016126bd565b925050602061288085828601612770565b9150509250929050565b6000806000806000608086880312156128a257600080fd5b60006128b0888289016126bd565b95505060206128c188828901612770565b94505060406128d2888289016126d2565b935050606086013567ffffffffffffffff8111156128ef57600080fd5b6128fb888289016126fc565b92509250509295509295909350565b6000806000806060858703121561292057600080fd5b600061292e878288016126bd565b945050602061293f87828801612770565b935050604085013567ffffffffffffffff81111561295c57600080fd5b612968878288016126fc565b925092505092959194509250565b600080600080600060a0868803121561298e57600080fd5b600061299c888289016126e7565b95505060206129ad888289016126bd565b94505060406129be888289016126bd565b93505060606129cf88828901612770565b92505060806129e088828901612770565b9150509295509295909350565b60008060408385031215612a0057600080fd5b6000612a0e858286016126e7565b925050602083013567ffffffffffffffff811115612a2b57600080fd5b612a3785828601612746565b9150509250929050565b600060208284031215612a5357600080fd5b6000612a6184828501612770565b91505092915050565b600060208284031215612a7c57600080fd5b6000612a8a84828501612785565b91505092915050565b612a9c81612fcd565b82525050565b612aab81612f4f565b82525050565b612aba81612f4f565b82525050565b612ad1612acc82612f4f565b613045565b82525050565b612ae081612f61565b82525050565b612aef81612f6d565b82525050565b612afe81612f77565b82525050565b6000612b0f82612f33565b612b198185612f3e565b9350612b29818560208601613012565b612b328161306b565b840191505092915050565b6000612b4a602483612f3e565b91507f556e6976657273616c5661756c743a20696e73756666696369656e742062616c60008301527f616e6365000000000000000000000000000000000000000000000000000000006020830152604082019050919050565b6000612bb0602083612f3e565b91507f556e6976657273616c5661756c743a20696e73756666696369656e74206761736000830152602082019050919050565b6000612bf0601c83612f3e565b91507f556e6976657273616c5661756c743a206d697373696e67206c6f636b000000006000830152602082019050919050565b606082016000820151612c396000850182612aa2565b506020820151612c4c6020850182612aa2565b506040820151612c5f6040850182612c65565b50505050565b612c6e81612fc3565b82525050565b612c7d81612fc3565b82525050565b6000612c8f8285612ac0565b601482019150612c9f8284612ac0565b6014820191508190509392505050565b6000602082019050612cc46000830184612ab1565b92915050565b6000602082019050612cdf6000830184612a93565b92915050565b6000606082019050612cfa6000830186612a93565b612d076020830185612ab1565b612d146040830184612c74565b949350505050565b6000608082019050612d316000830187612ab1565b612d3e6020830186612ab1565b612d4b6040830185612ad7565b8181036060830152612d5d8184612b04565b905095945050505050565b6000602082019050612d7d6000830184612ad7565b92915050565b6000604082019050612d986000830185612ad7565b8181036020830152612daa8184612b04565b90509392505050565b6000602082019050612dc86000830184612ae6565b92915050565b600060a082019050612de36000830188612ae6565b612df06020830187612ab1565b612dfd6040830186612ab1565b612e0a6060830185612c74565b612e176080830184612c74565b9695505050505050565b6000602082019050612e366000830184612af5565b92915050565b60006020820190508181036000830152612e5581612b3d565b9050919050565b60006020820190508181036000830152612e7581612ba3565b9050919050565b60006020820190508181036000830152612e9581612be3565b9050919050565b6000606082019050612eb16000830184612c23565b92915050565b6000602082019050612ecc6000830184612c74565b92915050565b6000604051905081810181811067ffffffffffffffff82111715612ef957612ef8613069565b5b8060405250919050565b600067ffffffffffffffff821115612f1e57612f1d613069565b5b601f19601f8301169050602081019050919050565b600081519050919050565b600082825260208201905092915050565b6000612f5a82612fa3565b9050919050565b60008115159050919050565b6000819050919050565b60007fffffffff0000000000000000000000000000000000000000000000000000000082169050919050565b600073ffffffffffffffffffffffffffffffffffffffff82169050919050565b6000819050919050565b6000612fd882612fdf565b9050919050565b6000612fea82612ff1565b9050919050565b6000612ffc82612fa3565b9050919050565b82818337600083830152505050565b60005b83811015613030578082015181840152602081019050613015565b8381111561303f576000848401525b50505050565b600061305082613057565b9050919050565b60006130628261307c565b9050919050565bfe5b6000601f19601f8301169050919050565b60008160601b9050919050565b60008160e01c9050919050565b600060443d10156130a657613149565b60046000803e6130b7600051613089565b6308c379a081146130c85750613149565b60405160043d036004823e80513d602482011167ffffffffffffffff821117156130f457505050613149565b808201805167ffffffffffffffff811115613113575050505050613149565b8060208301013d850181111561312e57505050505050613149565b6131378261306b565b60208401016040528296505050505050505b90565b61315581612f4f565b811461316057600080fd5b50565b61316c81612f61565b811461317757600080fd5b50565b61318381612f6d565b811461318e57600080fd5b50565b61319a81612fc3565b81146131a557600080fd5b5056fe4f776e61626c654552433732313a2063616c6c6572206973206e6f7420746865206f776e6572456e756d657261626c655365743a20696e646578206f7574206f6620626f756e64735472616e7366657248656c7065723a3a736166655472616e736665724554483a20455448207472616e73666572206661696c656445434453413a20696e76616c6964207369676e6174757265202773272076616c7565496e697469616c697a61626c653a20636f6e747261637420697320616c726561647920696e697469616c697a656445434453413a20696e76616c6964207369676e6174757265202776272076616c75655472616e7366657248656c7065723a3a736166655472616e736665723a207472616e73666572206661696c6564a2646970667358221220fba2e241394de83ccbf6b7b8f36e736baa06c788b6a314ebadee1ef082a8ab3664736f6c63430007060033",
  "linkReferences": {},
  "deployedLinkReferences": {}
}