{
  "_format": "hh-sol-artifact-1",
  "contractName": "PowerSwitchFactory",
  "sourceName": "contracts/Factory/PowerSwitchFactory.sol",
  "abi": [
    {
      "anonymous": false,
      "inputs": [
        {
          "indexed": false,
          "internalType": "address",
          "name": "instance",
          "type": "address"
        }
      ],
      "name": "InstanceAdded",
      "type": "event"
    },
    {
      "anonymous": false,
      "inputs": [
        {
          "indexed": false,
          "internalType": "address",
          "name": "instance",
          "type": "address"
        }
      ],
      "name": "InstanceRemoved",
      "type": "event"
    },
    {
      "inputs": [
        {
          "internalType": "bytes",
          "name": "args",
          "type": "bytes"
        }
      ],
      "name": "create",
      "outputs": [
        {
          "internalType": "address",
          "name": "",
          "type": "address"
        }
      ],
      "stateMutability": "nonpayable",
      "type": "function"
    },
    {
      "inputs": [
        {
          "internalType": "bytes",
          "name": "",
          "type": "bytes"
        },
        {
          "internalType": "bytes32",
          "name": "",
          "type": "bytes32"
        }
      ],
      "name": "create2",
      "outputs": [
        {
          "internalType": "address",
          "name": "",
          "type": "address"
        }
      ],
      "stateMutability": "pure",
      "type": "function"
    },
    {
      "inputs": [
        {
          "internalType": "uint256",
          "name": "index",
          "type": "uint256"
        }
      ],
      "name": "instanceAt",
      "outputs": [
        {
          "internalType": "address",
          "name": "instance",
          "type": "address"
        }
      ],
      "stateMutability": "view",
      "type": "function"
    },
    {
      "inputs": [],
      "name": "instanceCount",
      "outputs": [
        {
          "internalType": "uint256",
          "name": "count",
          "type": "uint256"
        }
      ],
      "stateMutability": "view",
      "type": "function"
    },
    {
      "inputs": [
        {
          "internalType": "address",
          "name": "instance",
          "type": "address"
        }
      ],
      "name": "isInstance",
      "outputs": [
        {
          "internalType": "bool",
          "name": "validity",
          "type": "bool"
        }
      ],
      "stateMutability": "view",
      "type": "function"
    }
  ],
  "bytecode": "0x608060405234801561001057600080fd5b50611662806100206000396000f3fe608060405234801561001057600080fd5b50600436106100575760003560e01c806311d8293e1461005c5780636b44e6be146100b45780638c0b8db21461010e578063cf5ba53f146101bb578063ec56c7161461025e575b600080fd5b6100886004803603602081101561007257600080fd5b810190808035906020019092919050505061027c565b604051808273ffffffffffffffffffffffffffffffffffffffff16815260200191505060405180910390f35b6100f6600480360360208110156100ca57600080fd5b81019080803573ffffffffffffffffffffffffffffffffffffffff169060200190929190505050610299565b60405180821515815260200191505060405180910390f35b61018f6004803603604081101561012457600080fd5b810190808035906020019064010000000081111561014157600080fd5b82018360208201111561015357600080fd5b8035906020019184600183028401116401000000008311171561017557600080fd5b9091929391929390803590602001909291905050506102b6565b604051808273ffffffffffffffffffffffffffffffffffffffff16815260200191505060405180910390f35b610232600480360360208110156101d157600080fd5b81019080803590602001906401000000008111156101ee57600080fd5b82018360208201111561020057600080fd5b8035906020019184600183028401116401000000008311171561022257600080fd5b9091929391929390505050610309565b604051808273ffffffffffffffffffffffffffffffffffffffff16815260200191505060405180910390f35b6102666103a7565b6040518082815260200191505060405180910390f35b60006102928260006103b890919063ffffffff16565b9050919050565b60006102af8260006103d290919063ffffffff16565b9050919050565b60006040517f08c379a000000000000000000000000000000000000000000000000000000000815260040180806020018281038252602381526020018061160a6023913960400191505060405180910390fd5b6000808383602081101561031c57600080fd5b81019080803573ffffffffffffffffffffffffffffffffffffffff169060200190929190505050905060008160405161035490610627565b808273ffffffffffffffffffffffffffffffffffffffff168152602001915050604051809103906000f080158015610390573d6000803e3d6000fd5b50905061039c81610402565b809250505092915050565b60006103b360006104bb565b905090565b60006103c783600001836104d0565b60001c905092915050565b60006103fa836000018373ffffffffffffffffffffffffffffffffffffffff1660001b610553565b905092915050565b61041681600061057690919063ffffffff16565b61046b576040517f08c379a00000000000000000000000000000000000000000000000000000000081526004018080602001828103825260248152602001806115e66024913960400191505060405180910390fd5b7fee3a98e49d5a27452a99d57c90a7f73d4b2e44de88c6ded02e69c4ed964edd5a81604051808273ffffffffffffffffffffffffffffffffffffffff16815260200191505060405180910390a150565b60006104c9826000016105a6565b9050919050565b600081836000018054905011610531576040517f08c379a00000000000000000000000000000000000000000000000000000000081526004018080602001828103825260228152602001806115c46022913960400191505060405180910390fd5b82600001828154811061054057fe5b9060005260206000200154905092915050565b600080836001016000848152602001908152602001600020541415905092915050565b600061059e836000018373ffffffffffffffffffffffffffffffffffffffff1660001b6105b7565b905092915050565b600081600001805490509050919050565b60006105c38383610553565b61061c578260000182908060018154018082558091505060019003906000526020600020016000909190919091505582600001805490508360010160008481526020019081526020016000208190555060019050610621565b600090505b92915050565b610f8f806106358339019056fe608060405234801561001057600080fd5b50604051610f8f380380610f8f8339818101604052602081101561003357600080fd5b810190808051906020019092919050505060006100546101ae60201b60201c565b9050806000806101000a81548173ffffffffffffffffffffffffffffffffffffffff021916908373ffffffffffffffffffffffffffffffffffffffff1602179055508073ffffffffffffffffffffffffffffffffffffffff16600073ffffffffffffffffffffffffffffffffffffffff167f8be0079c531659141344cd1fd0a4f28419497f9722a3daafe3b4186f6b6457e060405160405180910390a350600073ffffffffffffffffffffffffffffffffffffffff168173ffffffffffffffffffffffffffffffffffffffff161415610195576040517f08c379a000000000000000000000000000000000000000000000000000000000815260040180806020018281038252601a8152602001807f506f7765725377697463683a20696e76616c6964206f776e657200000000000081525060200191505060405180910390fd5b6101a8816101b660201b6109271760201c565b506103dd565b600033905090565b6101c46101ae60201b60201c565b73ffffffffffffffffffffffffffffffffffffffff166101e86103b460201b60201c565b73ffffffffffffffffffffffffffffffffffffffff1614610271576040517f08c379a00000000000000000000000000000000000000000000000000000000081526004018080602001828103825260208152602001807f4f776e61626c653a2063616c6c6572206973206e6f7420746865206f776e657281525060200191505060405180910390fd5b600073ffffffffffffffffffffffffffffffffffffffff168173ffffffffffffffffffffffffffffffffffffffff1614156102f7576040517f08c379a0000000000000000000000000000000000000000000000000000000008152600401808060200182810382526026815260200180610f696026913960400191505060405180910390fd5b8073ffffffffffffffffffffffffffffffffffffffff1660008054906101000a900473ffffffffffffffffffffffffffffffffffffffff1673ffffffffffffffffffffffffffffffffffffffff167f8be0079c531659141344cd1fd0a4f28419497f9722a3daafe3b4186f6b6457e060405160405180910390a3806000806101000a81548173ffffffffffffffffffffffffffffffffffffffff021916908373ffffffffffffffffffffffffffffffffffffffff16021790555050565b60008060009054906101000a900473ffffffffffffffffffffffffffffffffffffffff16905090565b610b7d806103ec6000396000f3fe608060405234801561001057600080fd5b50600436106100a95760003560e01c8063715018a611610071578063715018a61461012b578063766f13bc146101355780638da5cb5b14610169578063bf86d6901461019d578063efe68982146101bd578063f2fde38b146101c7576100a9565b806314fbf5cc146100ae5780633403c2fc146100b8578063438cae7e146100c25780634e69d560146100e2578063664ab18e1461010b575b600080fd5b6100b661020b565b005b6100c06103a7565b005b6100ca610543565b60405180821515815260200191505060405180910390f35b6100ea610573565b604051808260028111156100fa57fe5b815260200191505060405180910390f35b610113610589565b60405180821515815260200191505060405180910390f35b6101336105b8565b005b61013d610725565b604051808273ffffffffffffffffffffffffffffffffffffffff16815260200191505060405180910390f35b610171610734565b604051808273ffffffffffffffffffffffffffffffffffffffff16815260200191505060405180910390f35b6101a561075d565b60405180821515815260200191505060405180910390f35b6101c561078c565b005b610209600480360360208110156101dd57600080fd5b81019080803573ffffffffffffffffffffffffffffffffffffffff169060200190929190505050610927565b005b610213610b19565b73ffffffffffffffffffffffffffffffffffffffff16610231610734565b73ffffffffffffffffffffffffffffffffffffffff16146102ba576040517f08c379a00000000000000000000000000000000000000000000000000000000081526004018080602001828103825260208152602001807f4f776e61626c653a2063616c6c6572206973206e6f7420746865206f776e657281525060200191505060405180910390fd5b600060028111156102c757fe5b600060149054906101000a900460ff1660028111156102e257fe5b14610355576040517f08c379a000000000000000000000000000000000000000000000000000000000815260040180806020018281038252601d8152602001807f506f7765725377697463683a2063616e6e6f7420706f776572206f666600000081525060200191505060405180910390fd5b6001600060146101000a81548160ff0219169083600281111561037457fe5b02179055507f3f10cc673bb08c6ec06120804bfd562bd9edeaeff24a1eb7da3db0147de8ea0160405160405180910390a1565b6103af610b19565b73ffffffffffffffffffffffffffffffffffffffff166103cd610734565b73ffffffffffffffffffffffffffffffffffffffff1614610456576040517f08c379a00000000000000000000000000000000000000000000000000000000081526004018080602001828103825260208152602001807f4f776e61626c653a2063616c6c6572206973206e6f7420746865206f776e657281525060200191505060405180910390fd5b60028081111561046257fe5b600060149054906101000a900460ff16600281111561047d57fe5b14156104f1576040517f08c379a000000000000000000000000000000000000000000000000000000000815260040180806020018281038252601c8152602001807f506f7765725377697463683a2063616e6e6f742073687574646f776e0000000081525060200191505060405180910390fd5b6002600060146101000a81548160ff0219169083600281111561051057fe5b02179055507ff443ecad8d837e188abcabbbd02f1057b0d94896a09d5b97b2eb4bb445b94de860405160405180910390a1565b60006001600281111561055257fe5b600060149054906101000a900460ff16600281111561056d57fe5b14905090565b60008060149054906101000a900460ff16905090565b600080600281111561059757fe5b600060149054906101000a900460ff1660028111156105b257fe5b14905090565b6105c0610b19565b73ffffffffffffffffffffffffffffffffffffffff166105de610734565b73ffffffffffffffffffffffffffffffffffffffff1614610667576040517f08c379a00000000000000000000000000000000000000000000000000000000081526004018080602001828103825260208152602001807f4f776e61626c653a2063616c6c6572206973206e6f7420746865206f776e657281525060200191505060405180910390fd5b600073ffffffffffffffffffffffffffffffffffffffff1660008054906101000a900473ffffffffffffffffffffffffffffffffffffffff1673ffffffffffffffffffffffffffffffffffffffff167f8be0079c531659141344cd1fd0a4f28419497f9722a3daafe3b4186f6b6457e060405160405180910390a360008060006101000a81548173ffffffffffffffffffffffffffffffffffffffff021916908373ffffffffffffffffffffffffffffffffffffffff160217905550565b600061072f610734565b905090565b60008060009054906101000a900473ffffffffffffffffffffffffffffffffffffffff16905090565b600060028081111561076b57fe5b600060149054906101000a900460ff16600281111561078657fe5b14905090565b610794610b19565b73ffffffffffffffffffffffffffffffffffffffff166107b2610734565b73ffffffffffffffffffffffffffffffffffffffff161461083b576040517f08c379a00000000000000000000000000000000000000000000000000000000081526004018080602001828103825260208152602001807f4f776e61626c653a2063616c6c6572206973206e6f7420746865206f776e657281525060200191505060405180910390fd5b6001600281111561084857fe5b600060149054906101000a900460ff16600281111561086357fe5b146108d6576040517f08c379a000000000000000000000000000000000000000000000000000000000815260040180806020018281038252601c8152602001807f506f7765725377697463683a2063616e6e6f7420706f776572206f6e0000000081525060200191505060405180910390fd5b60008060146101000a81548160ff021916908360028111156108f457fe5b02179055507fd2ccdbf8763990e0fcff9e0d5c5867bcc73af876f85f1a8a65e868db95bf074c60405160405180910390a1565b61092f610b19565b73ffffffffffffffffffffffffffffffffffffffff1661094d610734565b73ffffffffffffffffffffffffffffffffffffffff16146109d6576040517f08c379a00000000000000000000000000000000000000000000000000000000081526004018080602001828103825260208152602001807f4f776e61626c653a2063616c6c6572206973206e6f7420746865206f776e657281525060200191505060405180910390fd5b600073ffffffffffffffffffffffffffffffffffffffff168173ffffffffffffffffffffffffffffffffffffffff161415610a5c576040517f08c379a0000000000000000000000000000000000000000000000000000000008152600401808060200182810382526026815260200180610b226026913960400191505060405180910390fd5b8073ffffffffffffffffffffffffffffffffffffffff1660008054906101000a900473ffffffffffffffffffffffffffffffffffffffff1673ffffffffffffffffffffffffffffffffffffffff167f8be0079c531659141344cd1fd0a4f28419497f9722a3daafe3b4186f6b6457e060405160405180910390a3806000806101000a81548173ffffffffffffffffffffffffffffffffffffffff021916908373ffffffffffffffffffffffffffffffffffffffff16021790555050565b60003390509056fe4f776e61626c653a206e6577206f776e657220697320746865207a65726f2061646472657373a264697066735822122094bea44eee1251412a53617a43b3f529e233d2ebf608800b1062c3a4663f6d9364736f6c634300070600334f776e61626c653a206e6577206f776e657220697320746865207a65726f2061646472657373456e756d657261626c655365743a20696e646578206f7574206f6620626f756e6473496e7374616e636552656769737472793a20616c72656164792072656769737465726564506f776572537769746368466163746f72793a20756e757365642066756e6374696f6ea26469706673582212206b1e5c7a5929847f9b8a431a10cc53e1b4a2508ec104c61c244352cd3f880ec064736f6c63430007060033",
  "linkReferences": {},
  "deployedLinkReferences": {}
}