{
  "_format": "hh-sol-artifact-1",
  "contractName": "RewardPoolFactory",
  "sourceName": "contracts/Factory/RewardPoolFactory.sol",
  "abi": [
    {
      "anonymous": false,
      "inputs": [
        {
          "indexed": false,
          "internalType": "address",
          "name": "instance",
          "type": "address"
        }
      ],
      "name": "InstanceAdded",
      "type": "event"
    },
    {
      "anonymous": false,
      "inputs": [
        {
          "indexed": false,
          "internalType": "address",
          "name": "instance",
          "type": "address"
        }
      ],
      "name": "InstanceRemoved",
      "type": "event"
    },
    {
      "inputs": [
        {
          "internalType": "bytes",
          "name": "args",
          "type": "bytes"
        }
      ],
      "name": "create",
      "outputs": [
        {
          "internalType": "address",
          "name": "",
          "type": "address"
        }
      ],
      "stateMutability": "nonpayable",
      "type": "function"
    },
    {
      "inputs": [
        {
          "internalType": "bytes",
          "name": "",
          "type": "bytes"
        },
        {
          "internalType": "bytes32",
          "name": "",
          "type": "bytes32"
        }
      ],
      "name": "create2",
      "outputs": [
        {
          "internalType": "address",
          "name": "",
          "type": "address"
        }
      ],
      "stateMutability": "pure",
      "type": "function"
    },
    {
      "inputs": [
        {
          "internalType": "uint256",
          "name": "index",
          "type": "uint256"
        }
      ],
      "name": "instanceAt",
      "outputs": [
        {
          "internalType": "address",
          "name": "instance",
          "type": "address"
        }
      ],
      "stateMutability": "view",
      "type": "function"
    },
    {
      "inputs": [],
      "name": "instanceCount",
      "outputs": [
        {
          "internalType": "uint256",
          "name": "count",
          "type": "uint256"
        }
      ],
      "stateMutability": "view",
      "type": "function"
    },
    {
      "inputs": [
        {
          "internalType": "address",
          "name": "instance",
          "type": "address"
        }
      ],
      "name": "isInstance",
      "outputs": [
        {
          "internalType": "bool",
          "name": "validity",
          "type": "bool"
        }
      ],
      "stateMutability": "view",
      "type": "function"
    }
  ],
  "bytecode": "0x608060405234801561001057600080fd5b506118d3806100206000396000f3fe608060405234801561001057600080fd5b50600436106100575760003560e01c806311d8293e1461005c5780636b44e6be146100b45780638c0b8db21461010e578063cf5ba53f146101bb578063ec56c7161461025e575b600080fd5b6100886004803603602081101561007257600080fd5b810190808035906020019092919050505061027c565b604051808273ffffffffffffffffffffffffffffffffffffffff16815260200191505060405180910390f35b6100f6600480360360208110156100ca57600080fd5b81019080803573ffffffffffffffffffffffffffffffffffffffff169060200190929190505050610299565b60405180821515815260200191505060405180910390f35b61018f6004803603604081101561012457600080fd5b810190808035906020019064010000000081111561014157600080fd5b82018360208201111561015357600080fd5b8035906020019184600183028401116401000000008311171561017557600080fd5b9091929391929390803590602001909291905050506102b6565b604051808273ffffffffffffffffffffffffffffffffffffffff16815260200191505060405180910390f35b610232600480360360208110156101d157600080fd5b81019080803590602001906401000000008111156101ee57600080fd5b82018360208201111561020057600080fd5b8035906020019184600183028401116401000000008311171561022257600080fd5b9091929391929390505050610309565b604051808273ffffffffffffffffffffffffffffffffffffffff16815260200191505060405180910390f35b610266610428565b6040518082815260200191505060405180910390f35b600061029282600061043990919063ffffffff16565b9050919050565b60006102af82600061045390919063ffffffff16565b9050919050565b60006040517f08c379a00000000000000000000000000000000000000000000000000000000081526004018080602001828103825260228152602001806118586022913960400191505060405180910390fd5b6000808383602081101561031c57600080fd5b81019080803573ffffffffffffffffffffffffffffffffffffffff1690602001909291905050509050600081604051610354906106a8565b808273ffffffffffffffffffffffffffffffffffffffff168152602001915050604051809103906000f080158015610390573d6000803e3d6000fd5b50905061039c81610483565b8073ffffffffffffffffffffffffffffffffffffffff1663f2fde38b336040518263ffffffff1660e01b8152600401808273ffffffffffffffffffffffffffffffffffffffff168152602001915050600060405180830381600087803b15801561040557600080fd5b505af1158015610419573d6000803e3d6000fd5b50505050809250505092915050565b6000610434600061053c565b905090565b60006104488360000183610551565b60001c905092915050565b600061047b836000018373ffffffffffffffffffffffffffffffffffffffff1660001b6105d4565b905092915050565b6104978160006105f790919063ffffffff16565b6104ec576040517f08c379a000000000000000000000000000000000000000000000000000000000815260040180806020018281038252602481526020018061187a6024913960400191505060405180910390fd5b7fee3a98e49d5a27452a99d57c90a7f73d4b2e44de88c6ded02e69c4ed964edd5a81604051808273ffffffffffffffffffffffffffffffffffffffff16815260200191505060405180910390a150565b600061054a82600001610627565b9050919050565b6000818360000180549050116105b2576040517f08c379a00000000000000000000000000000000000000000000000000000000081526004018080602001828103825260228152602001806118366022913960400191505060405180910390fd5b8260000182815481106105c157fe5b9060005260206000200154905092915050565b600080836001016000848152602001908152602001600020541415905092915050565b600061061f836000018373ffffffffffffffffffffffffffffffffffffffff1660001b610638565b905092915050565b600081600001805490509050919050565b600061064483836105d4565b61069d5782600001829080600181540180825580915050600190039060005260206000200160009091909190915055826000018054905083600101600084815260200190815260200160002081905550600190506106a2565b600090505b92915050565b611180806106b68339019056fe608060405234801561001057600080fd5b506040516111803803806111808339818101604052602081101561003357600080fd5b8101908080519060200190929190505050600061005461010c60201b60201c565b905080600160006101000a81548173ffffffffffffffffffffffffffffffffffffffff021916908373ffffffffffffffffffffffffffffffffffffffff1602179055508073ffffffffffffffffffffffffffffffffffffffff16600073ffffffffffffffffffffffffffffffffffffffff167f8be0079c531659141344cd1fd0a4f28419497f9722a3daafe3b4186f6b6457e060405160405180910390a3506101068161011460201b610c311760201c565b50610157565b600033905090565b806000806101000a81548173ffffffffffffffffffffffffffffffffffffffff021916908373ffffffffffffffffffffffffffffffffffffffff16021790555050565b61101a806101666000396000f3fe608060405234801561001057600080fd5b506004361061009e5760003560e01c80638da5cb5b116100665780638da5cb5b146101555780638f975a6414610189578063b27704fa146101f7578063bf86d69014610290578063f2fde38b146102b05761009e565b8063438cae7e146100a3578063664ab18e146100c3578063715018a6146100e3578063766f13bc146100ed5780638531a63614610121575b600080fd5b6100ab6102f4565b60405180821515815260200191505060405180910390f35b6100cb61039d565b60405180821515815260200191505060405180910390f35b6100eb610446565b005b6100f56105b6565b604051808273ffffffffffffffffffffffffffffffffffffffff16815260200191505060405180910390f35b61012961065f565b604051808273ffffffffffffffffffffffffffffffffffffffff16815260200191505060405180910390f35b61015d610688565b604051808273ffffffffffffffffffffffffffffffffffffffff16815260200191505060405180910390f35b6101f56004803603606081101561019f57600080fd5b81019080803573ffffffffffffffffffffffffffffffffffffffff169060200190929190803573ffffffffffffffffffffffffffffffffffffffff169060200190929190803590602001909291905050506106b2565b005b61028e6004803603604081101561020d57600080fd5b810190808035906020019064010000000081111561022a57600080fd5b82018360208201111561023c57600080fd5b8035906020019184602083028401116401000000008311171561025e57600080fd5b9091929391929390803573ffffffffffffffffffffffffffffffffffffffff169060200190929190505050610779565b005b610298610993565b60405180821515815260200191505060405180910390f35b6102f2600480360360208110156102c657600080fd5b81019080803573ffffffffffffffffffffffffffffffffffffffff169060200190929190505050610a3c565b005b60008060009054906101000a900473ffffffffffffffffffffffffffffffffffffffff1673ffffffffffffffffffffffffffffffffffffffff1663438cae7e6040518163ffffffff1660e01b815260040160206040518083038186803b15801561035d57600080fd5b505afa158015610371573d6000803e3d6000fd5b505050506040513d602081101561038757600080fd5b8101908080519060200190929190505050905090565b60008060009054906101000a900473ffffffffffffffffffffffffffffffffffffffff1673ffffffffffffffffffffffffffffffffffffffff1663664ab18e6040518163ffffffff1660e01b815260040160206040518083038186803b15801561040657600080fd5b505afa15801561041a573d6000803e3d6000fd5b505050506040513d602081101561043057600080fd5b8101908080519060200190929190505050905090565b61044e610c74565b73ffffffffffffffffffffffffffffffffffffffff1661046c610688565b73ffffffffffffffffffffffffffffffffffffffff16146104f5576040517f08c379a00000000000000000000000000000000000000000000000000000000081526004018080602001828103825260208152602001807f4f776e61626c653a2063616c6c6572206973206e6f7420746865206f776e657281525060200191505060405180910390fd5b600073ffffffffffffffffffffffffffffffffffffffff16600160009054906101000a900473ffffffffffffffffffffffffffffffffffffffff1673ffffffffffffffffffffffffffffffffffffffff167f8be0079c531659141344cd1fd0a4f28419497f9722a3daafe3b4186f6b6457e060405160405180910390a36000600160006101000a81548173ffffffffffffffffffffffffffffffffffffffff021916908373ffffffffffffffffffffffffffffffffffffffff160217905550565b60008060009054906101000a900473ffffffffffffffffffffffffffffffffffffffff1673ffffffffffffffffffffffffffffffffffffffff1663766f13bc6040518163ffffffff1660e01b815260040160206040518083038186803b15801561061f57600080fd5b505afa158015610633573d6000803e3d6000fd5b505050506040513d602081101561064957600080fd5b8101908080519060200190929190505050905090565b60008060009054906101000a900473ffffffffffffffffffffffffffffffffffffffff16905090565b6000600160009054906101000a900473ffffffffffffffffffffffffffffffffffffffff16905090565b6106ba610c74565b73ffffffffffffffffffffffffffffffffffffffff166106d8610688565b73ffffffffffffffffffffffffffffffffffffffff1614610761576040517f08c379a00000000000000000000000000000000000000000000000000000000081526004018080602001828103825260208152602001807f4f776e61626c653a2063616c6c6572206973206e6f7420746865206f776e657281525060200191505060405180910390fd5b610769610c7c565b610774838383610cf8565b505050565b610781610ebd565b6107896105b6565b73ffffffffffffffffffffffffffffffffffffffff163373ffffffffffffffffffffffffffffffffffffffff161461080c576040517f08c379a0000000000000000000000000000000000000000000000000000000008152600401808060200182810382526037815260200180610f606037913960400191505060405180910390fd5b600073ffffffffffffffffffffffffffffffffffffffff168173ffffffffffffffffffffffffffffffffffffffff161415610892576040517f08c379a0000000000000000000000000000000000000000000000000000000008152600401808060200182810382526021815260200180610f976021913960400191505060405180910390fd5b60005b8383905081101561098d5760008484838181106108ae57fe5b9050602002013573ffffffffffffffffffffffffffffffffffffffff16905060008173ffffffffffffffffffffffffffffffffffffffff166370a08231306040518263ffffffff1660e01b8152600401808273ffffffffffffffffffffffffffffffffffffffff16815260200191505060206040518083038186803b15801561093657600080fd5b505afa15801561094a573d6000803e3d6000fd5b505050506040513d602081101561096057600080fd5b8101908080519060200190929190505050905061097e828583610cf8565b50508080600101915050610895565b50505050565b60008060009054906101000a900473ffffffffffffffffffffffffffffffffffffffff1673ffffffffffffffffffffffffffffffffffffffff1663bf86d6906040518163ffffffff1660e01b815260040160206040518083038186803b1580156109fc57600080fd5b505afa158015610a10573d6000803e3d6000fd5b505050506040513d6020811015610a2657600080fd5b8101908080519060200190929190505050905090565b610a44610c74565b73ffffffffffffffffffffffffffffffffffffffff16610a62610688565b73ffffffffffffffffffffffffffffffffffffffff1614610aeb576040517f08c379a00000000000000000000000000000000000000000000000000000000081526004018080602001828103825260208152602001807f4f776e61626c653a2063616c6c6572206973206e6f7420746865206f776e657281525060200191505060405180910390fd5b600073ffffffffffffffffffffffffffffffffffffffff168173ffffffffffffffffffffffffffffffffffffffff161415610b71576040517f08c379a0000000000000000000000000000000000000000000000000000000008152600401808060200182810382526026815260200180610f3a6026913960400191505060405180910390fd5b8073ffffffffffffffffffffffffffffffffffffffff16600160009054906101000a900473ffffffffffffffffffffffffffffffffffffffff1673ffffffffffffffffffffffffffffffffffffffff167f8be0079c531659141344cd1fd0a4f28419497f9722a3daafe3b4186f6b6457e060405160405180910390a380600160006101000a81548173ffffffffffffffffffffffffffffffffffffffff021916908373ffffffffffffffffffffffffffffffffffffffff16021790555050565b806000806101000a81548173ffffffffffffffffffffffffffffffffffffffff021916908373ffffffffffffffffffffffffffffffffffffffff16021790555050565b600033905090565b610c8461039d565b610cf6576040517f08c379a00000000000000000000000000000000000000000000000000000000081526004018080602001828103825260168152602001807f506f77657265643a206973206e6f74206f6e6c696e650000000000000000000081525060200191505060405180910390fd5b565b6000808473ffffffffffffffffffffffffffffffffffffffff1663a9059cbb8585604051602401808373ffffffffffffffffffffffffffffffffffffffff168152602001828152602001925050506040516020818303038152906040529060e01b6020820180517bffffffffffffffffffffffffffffffffffffffffffffffffffffffff83818316178352505050506040518082805190602001908083835b60208310610dba5780518252602082019150602081019050602083039250610d97565b6001836020036101000a0380198251168184511680821785525050505050509050019150506000604051808303816000865af19150503d8060008114610e1c576040519150601f19603f3d011682016040523d82523d6000602084013e610e21565b606091505b5091509150818015610e615750600081511480610e605750808060200190516020811015610e4e57600080fd5b81019080805190602001909291905050505b5b610eb6576040517f08c379a000000000000000000000000000000000000000000000000000000000815260040180806020018281038252602d815260200180610fb8602d913960400191505060405180910390fd5b5050505050565b610ec5610993565b610f37576040517f08c379a00000000000000000000000000000000000000000000000000000000081526004018080602001828103825260188152602001807f506f77657265643a206973206e6f742073687574646f776e000000000000000081525060200191505060405180910390fd5b56fe4f776e61626c653a206e6577206f776e657220697320746865207a65726f2061646472657373526577617264506f6f6c3a206f6e6c7920636f6e74726f6c6c65722063616e2077697468647261772061667465722073687574646f776e526577617264506f6f6c3a20726563697069656e74206e6f7420646566696e65645472616e7366657248656c7065723a3a736166655472616e736665723a207472616e73666572206661696c6564a2646970667358221220780cf3d3cd01e289486743a6b33da7423c0b4d8438000336acaf59612e7012a064736f6c63430007060033456e756d657261626c655365743a20696e646578206f7574206f6620626f756e6473526577617264506f6f6c466163746f72793a20756e757365642066756e6374696f6e496e7374616e636552656769737472793a20616c72656164792072656769737465726564a26469706673582212209fb9c9a7214099733d8f712df1ef2817671be5c26e950bcd4c297242ba17476864736f6c63430007060033",
  "linkReferences": {},
  "deployedLinkReferences": {}
}